{
  "contractName": "OpenAuction",
  "abi": [
    {
      "inputs": [
        {
          "internalType": "uint256",
          "name": "biddingTime",
          "type": "uint256"
        },
        {
          "internalType": "address payable",
          "name": "beneficiaryAddress",
          "type": "address"
        }
      ],
      "stateMutability": "nonpayable",
      "type": "constructor"
    },
    {
      "inputs": [],
      "name": "AuctionAlreadyEnded",
      "type": "error"
    },
    {
      "inputs": [],
      "name": "AuctionEndAlreadyCalled",
      "type": "error"
    },
    {
      "inputs": [],
      "name": "AuctionNotYetEnded",
      "type": "error"
    },
    {
      "inputs": [
        {
          "internalType": "uint256",
          "name": "highestBid",
          "type": "uint256"
        }
      ],
      "name": "BidNotHighEnough",
      "type": "error"
    },
    {
      "anonymous": false,
      "inputs": [
        {
          "indexed": false,
          "internalType": "address",
          "name": "winner",
          "type": "address"
        },
        {
          "indexed": false,
          "internalType": "uint256",
          "name": "amount",
          "type": "uint256"
        }
      ],
      "name": "AuctionEnded",
      "type": "event"
    },
    {
      "anonymous": false,
      "inputs": [
        {
          "indexed": false,
          "internalType": "address",
          "name": "bidder",
          "type": "address"
        },
        {
          "indexed": false,
          "internalType": "uint256",
          "name": "amount",
          "type": "uint256"
        }
      ],
      "name": "HighestBidIncreased",
      "type": "event"
    },
    {
      "inputs": [],
      "name": "auctionEndTime",
      "outputs": [
        {
          "internalType": "uint256",
          "name": "",
          "type": "uint256"
        }
      ],
      "stateMutability": "view",
      "type": "function",
      "constant": true
    },
    {
      "inputs": [],
      "name": "beneficiary",
      "outputs": [
        {
          "internalType": "address payable",
          "name": "",
          "type": "address"
        }
      ],
      "stateMutability": "view",
      "type": "function",
      "constant": true
    },
    {
      "inputs": [],
      "name": "highestBid",
      "outputs": [
        {
          "internalType": "uint256",
          "name": "",
          "type": "uint256"
        }
      ],
      "stateMutability": "view",
      "type": "function",
      "constant": true
    },
    {
      "inputs": [],
      "name": "highestBidder",
      "outputs": [
        {
          "internalType": "address",
          "name": "",
          "type": "address"
        }
      ],
      "stateMutability": "view",
      "type": "function",
      "constant": true
    },
    {
      "inputs": [],
      "name": "bid",
      "outputs": [],
      "stateMutability": "payable",
      "type": "function",
      "payable": true
    },
    {
      "inputs": [],
      "name": "withdraw",
      "outputs": [
        {
          "internalType": "bool",
          "name": "",
          "type": "bool"
        }
      ],
      "stateMutability": "nonpayable",
      "type": "function"
    },
    {
      "inputs": [],
      "name": "auctionEnd",
      "outputs": [],
      "stateMutability": "nonpayable",
      "type": "function"
    }
  ],
  "bytecode": "0x60806040523480156200001157600080fd5b5060405162000aeb38038062000aeb833981810160405281019062000037919062000138565b806000806101000a81548173ffffffffffffffffffffffffffffffffffffffff021916908373ffffffffffffffffffffffffffffffffffffffff1602179055508142620000859190620001ae565b60018190555050506200020b565b600080fd5b6000819050919050565b620000ad8162000098565b8114620000b957600080fd5b50565b600081519050620000cd81620000a2565b92915050565b600073ffffffffffffffffffffffffffffffffffffffff82169050919050565b60006200010082620000d3565b9050919050565b6200011281620000f3565b81146200011e57600080fd5b50565b600081519050620001328162000107565b92915050565b6000806040838503121562000152576200015162000093565b5b60006200016285828601620000bc565b9250506020620001758582860162000121565b9150509250929050565b7f4e487b7100000000000000000000000000000000000000000000000000000000600052601160045260246000fd5b6000620001bb8262000098565b9150620001c88362000098565b9250827fffffffffffffffffffffffffffffffffffffffffffffffffffffffffffffffff038211156200020057620001ff6200017f565b5b828201905092915050565b6108d0806200021b6000396000f3fe6080604052600436106100705760003560e01c80633ccfd60b1161004e5780633ccfd60b146100c15780634b449cba146100ec57806391f9015714610117578063d57bde791461014257610070565b80631998aeef146100755780632a24f46c1461007f57806338af3eed14610096575b600080fd5b61007d61016d565b005b34801561008b57600080fd5b50610094610321565b005b3480156100a257600080fd5b506100ab610487565b6040516100b89190610642565b60405180910390f35b3480156100cd57600080fd5b506100d66104ab565b6040516100e39190610678565b60405180910390f35b3480156100f857600080fd5b506101016105cf565b60405161010e91906106ac565b60405180910390f35b34801561012357600080fd5b5061012c6105d5565b60405161013991906106e8565b60405180910390f35b34801561014e57600080fd5b506101576105fb565b60405161016491906106ac565b60405180910390f35b60015442106101b1576040517f08c379a00000000000000000000000000000000000000000000000000000000081526004016101a890610760565b60405180910390fd5b60035434116101f5576040517f08c379a00000000000000000000000000000000000000000000000000000000081526004016101ec906107cc565b60405180910390fd5b60006003541461027a5760035460046000600260009054906101000a900473ffffffffffffffffffffffffffffffffffffffff1673ffffffffffffffffffffffffffffffffffffffff1673ffffffffffffffffffffffffffffffffffffffff1681526020019081526020016000206000828254610272919061081b565b925050819055505b33600260006101000a81548173ffffffffffffffffffffffffffffffffffffffff021916908373ffffffffffffffffffffffffffffffffffffffff160217905550346003819055507ff4757a49b326036464bec6fe419a4ae38c8a02ce3e68bf0809674f6aab8ad300600260009054906101000a900473ffffffffffffffffffffffffffffffffffffffff16600354604051610317929190610871565b60405180910390a1565b60015442101561035d576040517f44cee29000000000000000000000000000000000000000000000000000000000815260040160405180910390fd5b600560009054906101000a900460ff16156103a4576040517f61cfdcf800000000000000000000000000000000000000000000000000000000815260040160405180910390fd5b6001600560006101000a81548160ff0219169083151502179055507fdaec4582d5d9595688c8c98545fdd1c696d41c6aeaeb636737e84ed2f5c00eda600260009054906101000a900473ffffffffffffffffffffffffffffffffffffffff16600354604051610414929190610871565b60405180910390a160008054906101000a900473ffffffffffffffffffffffffffffffffffffffff1673ffffffffffffffffffffffffffffffffffffffff166108fc6003549081150290604051600060405180830381858888f19350505050158015610484573d6000803e3d6000fd5b50565b60008054906101000a900473ffffffffffffffffffffffffffffffffffffffff1681565b600080600460003373ffffffffffffffffffffffffffffffffffffffff1673ffffffffffffffffffffffffffffffffffffffff16815260200190815260200160002054905060008111156105c6576000600460003373ffffffffffffffffffffffffffffffffffffffff1673ffffffffffffffffffffffffffffffffffffffff168152602001908152602001600020819055503373ffffffffffffffffffffffffffffffffffffffff166108fc829081150290604051600060405180830381858888f193505050506105c55780600460003373ffffffffffffffffffffffffffffffffffffffff1673ffffffffffffffffffffffffffffffffffffffff1681526020019081526020016000208190555060009150506105cc565b5b60019150505b90565b60015481565b600260009054906101000a900473ffffffffffffffffffffffffffffffffffffffff1681565b60035481565b600073ffffffffffffffffffffffffffffffffffffffff82169050919050565b600061062c82610601565b9050919050565b61063c81610621565b82525050565b60006020820190506106576000830184610633565b92915050565b60008115159050919050565b6106728161065d565b82525050565b600060208201905061068d6000830184610669565b92915050565b6000819050919050565b6106a681610693565b82525050565b60006020820190506106c1600083018461069d565b92915050565b60006106d282610601565b9050919050565b6106e2816106c7565b82525050565b60006020820190506106fd60008301846106d9565b92915050565b600082825260208201905092915050565b7f41756374696f6e20616c726561647920656e6465640000000000000000000000600082015250565b600061074a601583610703565b915061075582610714565b602082019050919050565b600060208201905081810360008301526107798161073d565b9050919050565b7f426964206e6f74206869676820656e6f75676800000000000000000000000000600082015250565b60006107b6601383610703565b91506107c182610780565b602082019050919050565b600060208201905081810360008301526107e5816107a9565b9050919050565b7f4e487b7100000000000000000000000000000000000000000000000000000000600052601160045260246000fd5b600061082682610693565b915061083183610693565b9250827fffffffffffffffffffffffffffffffffffffffffffffffffffffffffffffffff03821115610866576108656107ec565b5b828201905092915050565b600060408201905061088660008301856106d9565b610893602083018461069d565b939250505056fea26469706673582212207beeec0e2e15edd5a61037189471a0f387e5ffc58934c772994142f1f53e67ba64736f6c634300080d0033",
  "immutableReferences": {},
  "source": "// SPDX-License-Identifier: GPL-3.0\npragma solidity ^0.8.4;\ncontract OpenAuction {\n    address payable public beneficiary;\n    uint public auctionEndTime;\n\n    //Current state of auction\n    address public highestBidder;\n    uint public highestBid;\n\n    //Allowed withdrawals of previous bids\n    mapping(address => uint) pendingReturns;\n\n    //Set to true at end, disallows any changes\n    //By default initialized to false\n    bool ended;\n\n    //Events emmited on changes\n    event HighestBidIncreased(address bidder, uint amount);\n    event AuctionEnded(address winner, uint amount);\n\n    /// Auction has already ended\n    error AuctionAlreadyEnded();\n    /// There is already a higher or equal bid\n    error BidNotHighEnough(uint highestBid);\n    /// The auction has not ended yet\n    error AuctionNotYetEnded();\n    /// The fuction auctionEnd has already been called\n    error AuctionEndAlreadyCalled();\n\n    /// Create a simple auction with bidding time in seconds and beneficiary address\n    constructor(uint biddingTime, address payable beneficiaryAddress) {\n        beneficiary = beneficiaryAddress;\n        auctionEndTime = block.timestamp + biddingTime;\n    }\n\n    /// Bid on auction with value sent together with this transaction. \n    /// Value will only be refunded if auction is not won\n    function bid() external payable {\n        //Revert call if bidding period is over\n        // if (block.timestamp > auctionEndTime)\n        //     revert AuctionAlreadyEnded();\n        require(block.timestamp<auctionEndTime,\"Auction already ended\");\n\n        // If bid is not higer, send the ether back\n        // if (msg.value<=highestBid)\n        //     revert BidNotHighEnough(highestBid);\n        require(msg.value>highestBid,\"Bid not high enough\");\n\n        // When more than highestBid comes, put the old bids in array to be withdrawn\n        if (highestBid!=0){\n            // Safer to let recipients withdraw money themselves\n            pendingReturns[highestBidder] += highestBid; \n        }\n        highestBidder = msg.sender;\n        highestBid = msg.value;\n        emit HighestBidIncreased(highestBidder, highestBid);\n        \n    }\n\n    /// Withdraw a bid that was overbid\n    function withdraw() external returns (bool) {\n        uint amount = pendingReturns[msg.sender];\n        if (amount>0) {\n            // Important to set to zero, because recipent can call function again as part of \n            // recieving call before `send` returns\n            pendingReturns[msg.sender] = 0;\n\n\n            // If amount not sent then re add to pendingReturns array\n            if (!payable(msg.sender).send(amount)) {\n                pendingReturns[msg.sender]=amount;\n                return false;\n            }\n        }\n        return true;\n    }\n\n    /// End auction and send highest bid to beneficiary\n    function auctionEnd() external {\n\n        // 1. Conditions\n        if (block.timestamp<auctionEndTime)\n            revert AuctionNotYetEnded();\n        if (ended)\n            revert AuctionEndAlreadyCalled();\n\n        // 2. Effects\n        ended = true;\n        emit AuctionEnded(highestBidder,highestBid);\n\n        //3. Interaction\n        beneficiary.transfer(highestBid);        \n    }\n}",
  "sourcePath": "/home/s/programming/ethereum/open_auction/contracts/OpenAuction.sol",
  "compiler": {
    "name": "solc",
    "version": "0.8.13+commit.abaa5c0e.Emscripten.clang"
  },
  "schemaVersion": "3.4.7",
  "updatedAt": "2022-05-23T15:33:07.861Z",
  "networkType": "ethereum",
  "devdoc": {
    "kind": "dev",
    "methods": {},
    "version": 1
  },
  "userdoc": {
    "errors": {
      "AuctionAlreadyEnded()": [
        {
          "notice": "Auction has already ended"
        }
      ],
      "AuctionEndAlreadyCalled()": [
        {
          "notice": "The fuction auctionEnd has already been called"
        }
      ],
      "AuctionNotYetEnded()": [
        {
          "notice": "The auction has not ended yet"
        }
      ],
      "BidNotHighEnough(uint256)": [
        {
          "notice": "There is already a higher or equal bid"
        }
      ]
    },
    "kind": "user",
    "methods": {
      "auctionEnd()": {
        "notice": "End auction and send highest bid to beneficiary"
      },
      "bid()": {
        "notice": "Bid on auction with value sent together with this transaction.  Value will only be refunded if auction is not won"
      },
      "constructor": {
        "notice": "Create a simple auction with bidding time in seconds and beneficiary address"
      },
      "withdraw()": {
        "notice": "Withdraw a bid that was overbid"
      }
    },
    "version": 1
  }
}